:020000040800F2
:100000001808002045010008EB2000083D1F0008EB
:10001000E9200008F9070008092400080000000092
:10002000000000000000000000000000092100089E
:10003000FB07000800000000ED2000080B2100086D
:100040005F0100085F0100085F0100085F01000810
:100050005F0100085F0100085F0100085F01000800
:100060005F0100085F0100085F0100085F010008F0
:100070005F0100085F0100085F0100085F010008E0
:100080005F0100085F0100085F0100085F010008D0
:100090005F0100085F0100085F0100085F010008C0
:1000A0005F0100085F0100085F0100085F010008B0
:1000B0005F0100085F0100085F0100085F010008A0
:1000C0005F0100085F0100085F0100085F01000890
:1000D0005F010008E5230008F1230008FD23000864
:1000E0005F0100085F0100085F0100085F01000870
:1000F0005F0100085F0100085F0100085F01000860
:100100005F0100085F0100085F0100085F0100084F
:100110005F0100085F0100085F0100085F0100083F
:100120005F0100085F0100085F0100085F0100082F
:10013000DFF80CD000F03AFA00480047DD2F000845
:10014000180800200648804706480047FEE7FEE7FB
:10015000FEE7FEE7FEE7FEE7FEE7FEE7FEE7FEE777
:100160007121000831010008202A04DB203A21FA1D
:1001700002F00021704721FA02F3D040C2F12002C0
:100180009140084319467047D2B201E000F8012BB4
:10019000491EFBD270470022F6E710B513460A4607
:1001A00004461946FFF7F0FF204610BD30B50B4658
:1001B000014600202022012409E021FA02F59D4297
:1001C00005D303FA02F5491B04FA02F52844151E6B
:1001D000A2F10102F1DC30BD2DE9F05F05460020FF
:1001E00092469B4688460646814640241BE02846A8
:1001F000414647462246FFF7B7FF53465A46C01AC4
:10020000914110D311461846224600F0E1F92D1A0B
:1002100067EB01084F4622460120002100F0D8F983
:1002200017EB00094E41201EA4F10104DFDC484613
:1002300031462A464346BDE8F09F2DE9FE4F8046F1
:1002400081EA0300C00F0C46009021F0004123F02A
:100250000045B8EB0200A94105D240462146904630
:100260001C460B46024623F00040104347D0270DA2
:10027000C7F30A00C3F30A510290401A01904028C4
:100280006BDAC3F3130040F4801B0098924620B150
:100290000023D2EB030A63EB0B0B01985946C0F124
:1002A0004002504600F094F906460D465046594625
:1002B000019A00F09CF910EB08006141002487EAE4
:1002C000115284EAE7731A4340D0009A62B3019A4C
:1002D000012A4FEA075215DC001B61EB02014FF0C7
:1002E000004202EA0752CDE90042001C41F58011AC
:1002F00032462B4600F09CF903B0BDE8F08F404633
:100300002146F9E7001B61EB0201001C41F5801357
:1003100000185B412018A2F5001747EB030140EAE3
:10032000D570B6196D4111E06D084FEA360645EA01
:10033000C0754FEA0752001B61EB0201001C41F53A
:10034000801149084FEA30000019514132462B46CE
:1003500003B0BDE8F04F00F05CB900980122400006
:100360000023D0EB020263EBE073009821464FEAD2
:10037000E074B8EB000061EB0401E9E783F00043AF
:100380005BE781F0004158E72DE9FE4F81EA030465
:1003900004F0004421F0004100944FF0000B23F0E2
:1003A000004350EA01045ED052EA03045BD0C3F379
:1003B0000A54C1F30A552C44A4F2F3340194A0FB6F
:1003C0000254C1F3130141F48011C3F3130343F446
:1003D000801301FB024400FB034E840A970A44EA9F
:1003E000815447EA8357A4FB076802958D0A05FBF1
:1003F00007854FEA932C04FB0C542705029D4FEA16
:10040000065847EA1637B5EB08056EEB070C870E62
:10041000920E47EA811742EA8312A7FB0201B6EB6C
:100420000B0164EB00042B0D43EA0C335E1844EB24
:100430001C50DA465146E7FB0201C5F313044FEAAC
:100440000B3343EA14534FEA0432019C43EA060398
:10045000A4F10C040294009CCDE900B400F0E8F88B
:1004600003B0BDE8F08F00200146F9E72DE9F04D1B
:1004700081EA030404F0004B21F0004514464FF0DC
:10048000000A23F0004150EA050220D054EA01029C
:100490001DD0C5F30A570246C5F31303C1F3130079
:1004A000C1F30A5640F4801543F48013A7EB060805
:1004B000101BD64608F2FD3873EB050002D308F195
:1004C000010801E092185B41B8F1000F03DA002047
:1004D0000146BDE8F08D00204FF4801106468446A9
:1004E0000EE0171B73EB050705D3121B63EB050327
:1004F00006434CEA010C49084FEA300092185B4170
:1005000050EA0107EDD152EA030012D082EA04005A
:1005100083EA0501084305D0101BAB4106D2012236
:10052000002306E000224FF0004302E06FF00102DA
:1005300053101AEB06004CEB085110EB0A0041EB8C
:100540000B01BDE8F04D00F064B8C1F30A52C1F3ED
:10055000130140F2FF3341F480119A4202DA002085
:100560000146704740F233439A42A2F2334202DC22
:100570005242FFF7F9BD00F02BB8000030B5041E61
:1005800071F1000404DB4FF00044404264EB0101D0
:10059000141E73F1000405DB1C464FF00043524269
:1005A00063EB0403994208BF904230BD064C074DEF
:1005B00006E0E06840F0010394E807009847103433
:1005C000AC42F6D3FFF7B8FD64320008843200086D
:1005D000202A04DB203A00FA02F100207047914003
:1005E000C2F1200320FA03F3194390407047202AF8
:1005F00006DBCB17203A41FA02F043EAE07306E04B
:1006000041FA02F3D040C2F120029140084319465A
:10061000704710B5141E73F1000408DA401C41F154
:10062000000192185B411A4301D120F0010010BD76
:100630002DE9F04D92469B4611B1B1FA81F202E0EC
:10064000B0FA80F220329046FFF7C2FF04460F4610
:1006500040EA0A0041EA0B0153465A46084313D0C8
:10066000114653EA010019D0C8F140025046FFF785
:100670007BFD05460E46504659464246FFF7A8FF09
:10068000084305D0012004E020463946BDE8F08D3E
:100690000020054346EAE0762C4337430A98630579
:1006A000E40AA0EB08000022FD0A44EA47540A309D
:1006B00002D500200146E9E7010510196941DDE98D
:1006C000084500196941BDE8F04DA2E770B58C18E6
:1006D00010F8015B15F0070301D110F8013B2A1156
:1006E00006D110F8012B03E010F8016B01F8016B43
:1006F0005B1EF9D12B0705D40023521E0DD401F83F
:10070000013BFAE710F8013BCB1A921C03E013F807
:10071000015B01F8015B521EF9D5A142D8D300203C
:1007200070BD000070B5044600688168C943C90700
:1007300017D1816821F00101816000F081FC05463C
:100740000AE000BF00F07CFC401B022804D92068AE
:100750008068C043C00706D020688068C043C007D7
:10076000F0D0002070BDA06A40F01000A062E06AE6
:1007700040F00100E062012070BD0000F8B50026E5
:100780000446009600688168C943C9072DD0816876
:1007900041F001018160164816490068B0FBF1F094
:1007A00000E0401E00900028FBD100F049FC054607
:1007B00016E000BF00F044FC401B022810D920685E
:1007C0008068C043C0070BD0A06A40F01000A06250
:1007D000E06A40F00100E06284F824600120F8BD86
:1007E00020688068C043C007E4D10020F8BD000045
:1007F000D802002040420F00FEE77047704700001B
:1008000010B50A21002002F0AFFA0249020A0A716B
:10081000487110BDDC020020F8B50024009490F867
:1008200024202546012A12D0012280F824204A687B
:100830001F23072A0DD20668776B521E02EB820235
:1008400093409F430B6893401F43776319E0022056
:10085000F8BD06680D2A0AD2376BD21F02EB82025E
:1008600093409F430B6893401F43376309E0F76A47
:100870000D3A02EB820293409F430B6893401F4363
:10088000F7620A68072306680A2A0AD3F7680A3A51
:1008900002EB420293409F438B6893401F43F760F3
:1008A00008E0376902EB420293409F438B68934014
:1008B0001F4337610A68102A01D0112A20D1124B38
:1008C00002689A4217D193681B0219D4936843F4C3
:1008D000000393600968102912D10C490C4A096879
:1008E000B1FBF2F101EB8101490000E0491E0091EA
:1008F0000029FBD104E0816A41F0200181620124DA
:1009000080F824502046F8BD00240140D802002081
:1009100040420F000068C06C704700002DE9F041B4
:1009200004004FF000057FD0A06A002628B9E662D7
:1009300084F82460204600F081F82046FFF7F2FE9C
:10094000A16AC90600D420B1A06A40F01000A062DC
:100950006AE0A16A21F4885141F00201A1623349A1
:1009600023688B42E16904D1B1F5402F01D14FF4E6
:100970000021277B4FF4807C41EA470261680A43EB
:10098000A168614508D0012906D0002194F814E03F
:10099000BEF1010F02D00AE06146F7E7C7B1A76ACE
:1009A00047F02007A762E76A47F00107E7625F6840
:1009B00027F469470F435F60236899681C4F3940EB
:1009C00011439960A16861450BD0012909D00CE061
:1009D000DFF860E0A7690EEB47370F4347F400618B
:1009E000E5E7218A0D05A5F580152168CB6A23F47A
:1009F00070032B43CB62216889680F4B19409142E9
:100A000008D1E662A16A21F0020141F00101A16270
:100A1000BDE8F081A06A20F0020040F01000A06262
:100A2000E06A40F00100E0620120F1E7003C014093
:100A3000FDF7E1FF00E0FFFFFE0E1FFF00B585B0F0
:100A40000021009101910291039100680E498842B2
:100A500017D10E48816941F400718161816901F407
:100A600000710491816941F00401816180696946E6
:100A700000F004000490032000900190044800F06E
:100A8000D5F905B000BD000000240140001002406F
:100A9000000801402DE9F84300270D460446009761
:100AA00000F0CEFA804620688168C90508D5A06AA2
:100AB00040F02000A06284F824700120BDE8F88393
:100AC0004168C90503D4C06A10F4700F2AD002200F
:100AD00000F054FB3B490968B1FBF0F6206803695C
:100AE00039490B424FEA61014FEAA1121FD1C36895
:100AF0004FEA611C13EA0C0F19D103690B4225D18F
:100B0000C068104222D1142023E0681C0AD02DB105
:100B100000F096FAA0EB0800A84203D9206800680C
:100B2000800725D5206800688007EED52DE0036991
:100B30000B4202D1C168114206D0026923490A4220
:100B400006D1C068084203D1542002E0292000E009
:100B5000FC204643009816E0681C11D02DB100F02F
:100B60006FFAA0EB0800A8420AD90098B04207D259
:100B7000A06A40F00400A06284F8247003209DE77E
:100B80000098401C0090B042E6D321686FF012003C
:100B90000860A06A40F40070A06220688068C0F31A
:100BA000424007280CD1207B50B9A06A20F4807005
:100BB000A062A06AC00403D4A06A40F00100A06251
:100BC00000207BE7D8020020244992244992240087
:100BD00070B5044690F8240001280DD0012084F857
:100BE00024002046FFF7CAFD02004FF0000005D0A8
:100BF00084F82400104670BD022070BDA16A40F246
:100C00000123994341F48071A1621F4D23681F495C
:100C1000AB4218D10E6816F4702F14D0A66A46F4B1
:100C20008016A6620E68760505D5A66A26F40056DB
:100C300046F48056A662A66AF6040AD5E66A26F04D
:100C40000606E66206E0A66A26F48016A6625E68DC
:100C5000E9E7E06284F824006FF002001860206881
:100C60008368C3F34243072B05D1A84208D1096822
:100C700011F4702F04D0816841F480118160B9E7CC
:100C8000816841F4A001F9E70028014004240140F3
:100C900010B590F821100022022905D004218163AB
:100CA00080F82020012010BD01680B6823F00E039E
:100CB0000B6001680B6823F001030B6090F8403073
:100CC000C46B012101FA03F3636080F8211080F8FE
:100CD0002020104610BD00002DE9F05F90F8211093
:100CE0000024022903D004218163012485E00168E6
:100CF0000A6822F00E020A6001680A6822F0010206
:100D00000A603F4E3E4FB215DFF8F4C0DFF8F090B6
:100D1000DFF8ECA0DFF8E8B0DFF8E4E00168783F46
:100D200013011502ACF1640CA9F15009AAF13C0AB7
:100D3000ABF1280BAEF1140E4FF48018B14227D955
:100D4000B9420ED0614512D049451DD0514518D049
:100D5000594518D0714501D1424615E0294EB1429E
:100D600001D1012210E0274E1436B14201D11022E8
:100D70000AE0244E2836B14206D0224A3C32914243
:100D800001D11A4600E02A461E49091F0A602BE0DD
:100D9000B94213D0614517D0494522D051451DD0E5
:100DA00059451DD0714501D142461AE0B14202D1E8
:100DB0004FF0807215E0134EB14201D1012210E0D4
:100DC000104E1436B14201D110220AE00D4E2836E1
:100DD000B14206D00B4A3C32914201D11A4600E0A2
:100DE0002A46074980394A60012180F821100021F4
:100DF00080F82010416B01B188472046BDE8F09F84
:100E0000800002400804024070B5044600F018F962
:100E10000546601C02D004480078044400F010F934
:100E2000401BA042FAD370BDCC0200202DE9F84F40
:100E3000DFF8C891002409F1040A0AF1040B2346E3
:100E40000F270BF1040ED1E00125A54006EA0502AB
:100E5000AA4276D1DFF8A8C14E68A6EB0C08664519
:100E60002BD00DDC032E34D005DC36B3012E19D087
:100E7000022E2FD11BE0112E16D0122E2AD119E0EE
:100E8000B8F5881F19D006DCB8F5803F15D0B8F545
:100E9000801F1FD111E0B8F5001F0ED0B8F5041F58
:100EA00018D10AE0CB6815E0CB681B1D12E0CB68B7
:100EB00008330FE0CB680C330CE08B682BB1012BAF
:100EC0004FF0080303D0456104E0042302E005610C
:100ED00000E00023FF2A01D8064601E000F10406E5
:100EE0004FEA840501D9A5F12005D6F8008007FA5C
:100EF00005FC28EA0C0803FA05F548EA0508C6F8D7
:100F000000804D68ED0070D53E4DAE6946F001069B
:100F1000AE61AD6924F0030605F0010500953A4D78
:100F200006EB050CDCF80850A607360F07FA06F8A2
:100F300025EA0805DFF8D480404503D14FF00008CA
:100F400025E052E0DFF8C880404502D14FF00108AB
:100F50001DE0DFF8C080404502D14FF0020816E0E6
:100F6000DFF8B480404502D14FF003080FE0DFF80E
:100F7000AC80404502D14FF0040808E0DFF8A080C3
:100F8000404502D14FF0050801E04FF0060808FA8D
:100F900006F848EA0508CCF808804D68D9F80060E2
:100FA000ED034D4601D5164300E096432E604D6893
:100FB000DAF80060AD03554601D5164300E09643CC
:100FC0002E604D68DBF80060ED025D4601D51643EA
:100FD00000E096432E604D68DEF80060AD02754675
:100FE00001D5164300E096432E60641C0A6816463D
:100FF000E2407FF429AFBDE8F88F00000004014013
:1010000000001110001002400000014000080140E3
:10101000000C014000100140001401400018014084
:10102000001C0140C26821EA02030A4043EA02416F
:10103000016170470AB1016170470904FBE70000D4
:101040000148806870470000CC0200200248816897
:101050000278114481607047CC020020074810B527
:10106000016841F010010160032000F075F80020D4
:1010700000F006F800F024F8002010BD0020024027
:1010800070B50D4D04464FF47A712878B1FBF0F03D
:101090000A490968B1FBF0F000F0CCFB48B9102C0C
:1010A00007D200222146501E00F036F800206C6066
:1010B00070BD012070BD0000CC020020D8020020CD
:1010C0000C4808B5816941F001018161816901F035
:1010D00001010091C16941F08051C161C06900F016
:1010E000805000900448416821F0E06141F00071B7
:1010F000416008BD0010024000000140002809DBEB
:1011000000F01F02012191404009800000F1E02021
:10111000C0F8001170470000F0B40E4B1B680C467D
:10112000C3F30223C3F10705042D00D90425191DBB
:10113000072901D2002300E0DB1E012606FA05F193
:10114000491E214099409E40761E16403143F0BC16
:1011500001F06EB90CED00E0064900F007020868E6
:101160004FF6FF03184040EA0220034A104308608C
:10117000704700000CED00E00000FA0510B52CA44B
:1011800001461DCC86B08DE81D002DA02D4C0068B9
:101190000490002004292FD00BDC01292FD0022934
:1011A00028D100F071F96168C1F38131491C49000F
:1011B0001EE0082920D010291CD161682268D201C4
:1011C00018D5C1F38342C9031DF8020009D561682F
:1011D00004AAC1F34041515C1B4AB2FBF1F1484300
:1011E00001E01A4948436168490203D440000321E1
:1011F000B0FBF1F006B010BD00F056F9FAE7226A34
:10120000C2F30121012903D1920701D5C803F1E7F7
:10121000022905D1626A920702D549F64040E9E702
:101220000329E7D121688903E4D54FF22440E1E79F
:1012300002030405060708090A0B0C0D0E0F101017
:10124000010200000010024000127A0000093D0077
:101250002DE9F84305460078354CC00754D0E069C5
:101260000026C00008D4E06940F08050E061E069E9
:10127000012600F0805000902E480168C90512D464
:101280000168804641F480710160FFF7D9FE07468E
:1012900005E000BFFFF7D4FEC01B642823D8D8F8B0
:1012A0000000C005F6D5206A10F4407021D0A9884E
:1012B00001F4407181421CD0206A1F49012220F4B0
:1012C00040700A6000220A602062C00711D0FFF758
:1012D000B7FE074641F2883808E000BFFFF7B0FECE
:1012E000C11B414502D90320BDE8F883206A80076D
:1012F000F4D5206A696820F44070084320621EB16A
:10130000E06920F08050E0612878800705D56068AA
:10131000A96820F44040084360602878C00605D5DD
:101320006068696920F48000084360600020DBE7A2
:101330000010024000700040400442422DE9F04796
:101340000F46050061D0434E306800F00700B842F8
:1013500009D2306820F0070038433060306800F070
:101360000700B84251D128683B4C810712D540078D
:1013700003D5606840F4E06060602878000703D51A
:10138000606840F4605060606068A96820F0F00018
:10139000084360602878C00728D06868012810D00A
:1013A0002168022810D0890700292EDA616821F00F
:1013B000030101436160FFF743FE804641F2883933
:1013C0000DE021688903EFE78901EDE7FFF738FEBB
:1013D000A0EB0801494502D90320BDE8F087606809
:1013E000696800F00C00B0EB810FEFD1306800F0BD
:1013F0000700B8420BD9306820F00700384330604E
:10140000306800F00700B84201D00120E5E72878F5
:10141000400705D56068E96820F4E0600843606033
:101420002878000706D56068296920F4605040EAF2
:10143000C100606000F038F86168084AC1F3031128
:10144000515CC8400649086006480068FFF718FE6E
:101450000020C2E700200240001002404C32000889
:10146000D8020020D00200200448054900684968DD
:10147000044AC1F30221515CC8407047D8020020E1
:10148000001002405C3200080448054900684968C1
:10149000044AC1F3C221515CC8407047D802002001
:1014A000001002405C32000812A185B00FC98DE81F
:1014B0000F0014A0144A006804905168134801F00A
:1014C0000C03042B10D0082B0ED1C1F38343C903A6
:1014D0001DF803000AD5516804AAC1F34041515CCC
:1014E0000A4A5043B0FBF1F005B070470849484341
:1014F000FAE7000002030405060708090A0B0C0DB1
:101500000E0F1010010200000010024000127A00BD
:1015100000093D002DE9F84F040070D02078C04D3F
:10152000C00749D06868C0F38100012807D0686807
:10153000C0F38100022809D16868C00306D5286875
:10154000800339D560680028E7D035E06068B0F5E1
:10155000803F0BD010B1B0F5A02F11D0286820F437
:1015600080302860286820F4802002E0286840F459
:1015700080302860606890B1FFF762FD06460AE09F
:10158000286840F480202860F0E700BFFFF758FD8E
:10159000801B642873D828688003F7D50CE0FFF718
:1015A0004FFD064605E000BFFFF74AFD801B64289B
:1015B000F0D828688003F7D420789A4E80074FF03F
:1015C00001094FF0000839D5686810F00C0F07D0FA
:1015D0006868C0F38100022809D16868C00306D496
:1015E0002868800714D52069012808D110E02069F7
:1015F000B0B1C6F80090FFF723FD074605E00AE109
:10160000FFF71EFDC01B0228C4D828688007F7D545
:101610002868616920F0F80040EAC10028600DE008
:10162000C6F80080FFF70CFD074604E0FFF708FD51
:10163000C01B022823D828688007F7D42078000729
:101640002CD57948A169D9B1C0F80090FFF7F8FC12
:10165000074604E0FFF7F4FCC01B02280FD8686AB5
:101660008007F7D571484FF4FA510068B0FBF1F0EC
:10167000009000BF0098411E0091FAD20EE080E079
:10168000C0F80080FFF7DCFC074604E0FFF7D8FC59
:10169000C01B022875D8686A8007F7D420784007F5
:1016A00060D5E8690027C00008D4E86940F08050A0
:1016B000E861E869012700F0805000905C4801680B
:1016C000C90513D40168834641F480710160FFF7B6
:1016D000B7FC824606E000BFFFF7B2FCA0EB0A00B1
:1016E00064284ED8DBF80000C005F5D5E068012875
:1016F0000AD008B1052813D0286A20F0010028621A
:10170000286A20F0040002E0286A40F00100286204
:10171000E06841F2883B98B1FFF792FC82460BE00B
:10172000286A40F004002862EEE700BFFFF788FC5B
:10173000A0EB0A0159455AD8286A8007F6D50CE073
:10174000FFF77EFC824605E0FFF77AFCA0EB0A017A
:1017500059454CD8286A8007F6D41FB1E86920F0B3
:101760008050E861E06988B36968C1F381010229AA
:1017700044D00228C6F8608004D0FFF761FC04461C
:1017800038E034E0FFF75CFC074604E0FFF758FC64
:10179000C01B02282BD828688001F7D4206AB0F536
:1017A000803F05D16868A16820F400300843686074
:1017B000D4E908010843696821F47411084368609A
:1017C000C6F86090FFF73CFC044606E025E000BF49
:1017D000FFF736FC001B022809D828688001F7D5DE
:1017E0001BE000BFFFF72CFC001B022802D90320DE
:1017F000BDE8F88F28688001F4D40EE00128F7D006
:101800006868226A00F48031914204D1616A00F470
:101810007010884201D00120EAE70020E8E70000CC
:10182000001002400000424280044242D8020020E0
:101830000070004010B5401EB0F1807F01D3012040
:1018400010BD4FF0E02460610F21601700F0F0FD43
:101850000020A06107202061002010BD7047704764
:1018600010F83D1F4078084370470000F8B5026843
:1018700004461068D168536910F00F0F4FF000054F
:1018800053D003F0010601F4907737435FD0C207CD
:1018900005D0CA0503D5226C42F00102226442073A
:1018A00005D5DA0703D0226C42F0020222648207D7
:1018B00005D5DA0703D0226C42F004022264020745
:1018C00007D501F02002324303D0226C42F0080217
:1018D0002264226C002A34D0800604D5880602D502
:1018E000204600F079FC20684069216CC0F380102C
:1018F000090700D430B3204600F056FC2068416947
:1019000049061BD5416921F040014161A06BA8B196
:1019100058494163A06BFFF7DFF9002811D0A06B95
:10192000416B01B0BDE8F040084783060FD58B0638
:101930000DD52046BDE8F84000F04EBC2046FFF72C
:101940008EFFF8BD2046FFF78AFF2564F8BD266BA1
:101950002023012E52D1C60650D5CE064ED5106892
:1019600050680090506940062AD5A16B086840680D
:101970000004000CEAD0A68D8642E7D9E08588698C
:10198000202818D0D06820F48070D0602068416989
:1019900021F0010141612068416921F0400141616C
:1019A00084F83E3025632068C16821F01001C160D1
:1019B000A06BFFF76DF9A08DE18D401A81B219E09F
:1019C000A08DE18D401A81B2E08D0028BED00029A3
:1019D000BCD0D06820F49070D0602068426922F0BA
:1019E0000102426184F83E3025632068C26822F01B
:1019F0001002C2602046FFF731FFF8BD05062BD567
:101A00000D0629D594F83D002128F6D1A068B0F53F
:101A1000805F01D12069B0B1206A411C2162216838
:101A200000784860E08C401E0004000CE084E4D1A3
:101A30002068C16821F08001C1602068C16841F060
:101A40004001C160F8BD206A0088C0F30800506002
:101A5000206A801C2062E5E74006F3D54806F1D5F0
:101A6000D168204621F04001D16084F83D3000F07B
:101A700064FAF8BD9921000870B5040004D094F808
:101A80003D00002510B106E0012070BD84F83C50F7
:101A9000204600F023F8242084F83D002068C16827
:101AA00021F40051C160204600F0F2FB206801697A
:101AB00021F4904101612068416921F02A014161CE
:101AC0002068C16841F40051C1602564202084F879
:101AD0003D0084F83E00002070BD0000F0B585B0E8
:101AE000002400940194029403940368424F02205E
:101AF00042490322424D4602BB4225D18B6943F441
:101B000080438B618B6903F4804304938B6943F0BA
:101B100004038B618969039201F0040104910102BD
:101B2000CDE9001069462846FFF780F9CDE9006449
:101B3000694628460294FFF779F9002211462520CC
:101B4000FFF7EAFA252028E02E4FBB4229D1CB69C6
:101B500043F40033CB61CB6903F4003304938B6906
:101B600043F004038B618969039201F0040104913D
:101B70000421CDE9001069462846FFF757F90820EF
:101B8000CDE90004694628460294FFF74FF9002288
:101B900011462620FFF7C0FA2620FFF7AFFA05B05E
:101BA000F0BD194DAB42FAD1CB6943F48023CB6130
:101BB000CB6903F4802304938B6943F008038B61A2
:101BC0008969124D01F00801CDE90321CDE90060DA
:101BD00069462846FFF72AF9E814CDE9000469466A
:101BE00028460294FFF722F9002211462720FFF72A
:101BF00093FA2720D1E7000000380140001002408E
:101C0000000801400044004000480040000C014032
:101C100090F83E30202B0ED159B152B190F83C30A3
:101C2000012B08D0012380F83C300023036300F02F
:101C30008BBB012070470220704700007CB58B49A8
:101C4000002688424ED10846FFF710FE8748FFF76E
:101C500007FE2028FAD1864C012221468348FFF74F
:101C6000D7FF0028F8D1824CC83C94F8C8108DF8F2
:101C70000010B4F8D400020414D4420407D4AA29F2
:101C800010D1C0F30C00215434F8D40F50E082047A
:101C90000CD4CC2907D1C0F30C00215434F8D40F54
:101CA00053E020807CBDA4F8D4607CBDC0F30C0060
:101CB0002154B4F8D400401CA4F8D400C0F30C00A4
:101CC0001828F2D16A481621C83801F005F9E27DDA
:101CD000C1B29142E7D1A17DB1EB102FE3D134F82D
:101CE000D40F50E06349644C884252D10846FFF754
:101CF000BDFD6048FFF7B4FD2028FAD15E4DC83520
:101D0000012229465B48FFF783FF0028F8D194F8A9
:101D1000C8008DF80000B4F8D0100A04C5D44A04F5
:101D20000AD4AA28C1D1C1F30C01605434F8D00FF1
:101D3000401C40F48040B4E78A040AD4CC2825D162
:101D4000C1F30C01605434F8D00F401C40F4005033
:101D5000A7E7C1F30C016054B4F8D000401CA4F80C
:101D6000D000C0F30C0018289FD11621424801F082
:101D7000B3F8E27DC1B2914208D1A17DB1EB102F41
:101D800004D134F8D00F40F400408AE7A4F8D060C2
:101D90007CBD3A4DA842FBD12846FFF767FD286875
:101DA0000168C943090704D40168416801910168C9
:101DB00040683248FFF754FD2028FAD1304D012207
:101DC00029462E48FFF724FF0028F8D12C4D2D4935
:101DD000C83D95F8C8008DF80000097881B1B5F8C4
:101DE000D0100A04D4D44A0410D4AA28D0D1C1F304
:101DF0000C01685435F8D00F401C40F4804011E0CD
:101E0000D4F8E8200121684690477CBD8A040ED4AE
:101E1000CC2809D1C1F30C01685435F8D00F401C0F
:101E200040F4005028807CBDA5F8D0607CBDC1F393
:101E30000C016854B5F8D000401CA5F8D000C0F3E0
:101E40000C001828F2D10E481621C83801F044F8C9
:101E5000EA7DC1B29142E7D1A97DB1EB102FE3D168
:101E600035F8D00F40F40040DCE70000D403002038
:101E7000A00200204C03002000000020900300205E
:101E8000B4010020C40200202DE9F843044690F874
:101E90003D001F4616460D4620284CD1C5B1BEB1A7
:101EA00094F83C00012846D0012084F83C004FF013
:101EB0000008C4F84080212084F83D00FFF7C0F8F6
:101EC000A6848146E684A068B0F5805F03D004E074
:101ED0000120BDE8F883206928B12E465FF0000597
:101EE00084F83C800EE00026FAE78021204600F0CE
:101EF00046FAA0B9AEB116F8010B21684860E08C33
:101F0000401EE084E08C4B464FF000020097002812
:101F1000EBD14FF04001204600F031FA30B1032000
:101F2000D7E735F8020BC0F30800E6E7202084F875
:101F30003D000020CDE70220CBE77047FEE7000020
:101F40003EB5002410480094019402940D49846029
:101F5000016004730475012505614FF4602144603C
:101F6000C161FEF7DBFC08B1FEF748FCCDE9004596
:101F7000694605480294FEF74FFC002801D0FEF7A1
:101F80003DFC3EBD002401401C0300202DE9F04330
:101F900085B0002427480094019402940394816939
:101FA00041F020018161816901F020010491816982
:101FB00041F010018161816901F010010491816992
:101FC00041F004018161816901F00401049181699A
:101FD00041F0080181618069DFF85C8000F0080051
:101FE0000490002203214046FFF724F8DFF84C90CC
:101FF000002210214846FFF71DF80325012602277D
:102000008DE8E000694640460395FEF70FFF042087
:10201000CDE90004694640460294FEF707FF102010
:1020200003958DE8C10069464846FEF7FFFE05B0FE
:10203000BDE8F0830010024000100140000801409C
:102040000C4810B50A4901604FF4E13141600021AC
:1020500081600C22C160C0E904128161C161FFF797
:102060000BFD002803D0BDE81040FEF7C7BB10BD34
:10207000003801404C0300200C4810B50A490160AB
:102080004FF4E1314160002181600C22C160C0E960
:1020900004128161C161FFF7EFFC002803D0BDE8A5
:1020A0001040FEF7ABBB10BD004400409003002081
:1020B0000C4810B50A4901604FF4E131416000213C
:1020C00081600C22C160C0E904128161C161FFF727
:1020D000D3FC002803D0BDE81040FEF78FBB10BD35
:1020E00000480040D4030020FEE77047704700001E
:1020F00010B50020FEF788FE02480168491C016007
:1021000010BD0000C80200207047FEF79FBF30B529
:1021100095B028216846FEF73EF814210AA8FEF77C
:102120003AF818210FA8FEF736F801210804CDE986
:1021300000100024029402250491CDE907504FF4C9
:10214000E01009906846FFF7E5F90F20CDE90A0590
:102150006802CDE90C4002210AA80E94FFF7EEF8C0
:10216000A80311900F950FA8FFF772F815B030BDB6
:102170007047000010B5074CB4F8D000000407D534
:10218000E078012801D100F0BFFE0020A4F8D000C3
:1021900010BD0000EC00002010B5406A0021C18590
:1021A000C184FFF75CFB10BD0168CA6822F490721D
:1021B000CA6001684A6922F001024A61016B012983
:1021C00004D10168CA6822F01002CA60202180F898
:1021D0003E1000210163704708B590F83E10222997
:1021E00001D0022008BD82684FF480539A4201D189
:1021F000016921B1816A9A421BD04AB10AE00268A2
:10220000816A5268C2F308020A80816A891C08E068
:10221000026972B10268526802F07F020A70816A34
:10222000491C8162C18D491E0904090CC18503D076
:1022300019E002685268F1E70168CA6822F02002DA
:10224000CA600168CA6822F48072CA6001684A697B
:1022500022F001024A61202180F83E10016B012921
:1022600003D0FFF7EBFC002008BD002101630168EB
:10227000CA6822F01002CA6001680A68D20602D554
:102280000A6849680091818DFFF7E8FAEBE70000E2
:1022900070B5044600680169E26821F440511143B9
:1022A00001612169A0680843616908432168CA681F
:1022B00041F20C639A430243CA6020684169A269F3
:1022C00021F44071114341611E492068884202D1C6
:1022D000FFF7DAF801E0FFF7C7F800EBC00101EB08
:1022E0000012606864218000B2FBF0F3B3FBF1F3ED
:1022F0006FF018067343B2FBF0F5B2FBF0F605EB96
:102300008305322303EB0515B5FBF1F5B6FBF1F6BA
:1023100005F0F00505EB0615B2FBF0F6B2FBF0F0A8
:10232000B0FBF1F06FF01802504306EB800003EBB6
:102330000010B0FBF1F0216800F00F002844886025
:1023400070BD00000038014081628285C285002195
:102350000164222280F83E2080F83C100168CA689F
:1023600042F48072CA6001684A6942F001024A611F
:102370000068C16841F02001C160002070472DE96C
:10238000F041984617460E460446069D1DE0681C1F
:102390001BD02DB1FEF754FEA0EB0800A84214D9C3
:1023A0002068C16821F4D071C1602068416921F0C2
:1023B00001014161202084F83D0084F83E000020A6
:1023C00084F83C000320BDE8F0812068006836EA0C
:1023D000000004D00020B842D9D00020F3E701204B
:1023E000F9E700000148FFF741BA00004C03002064
:1023F0000148FFF73BBA0000900300200148FFF7B7
:1024000035BA0000D4030020FEE7000037B51446BB
:102410000846064B6A46214600F0ECF80446694639
:10242000002000F07EFC20463EBD0000232D000869
:102430000907090E002804DB00F1E02080F80014F1
:10244000704700F00F0000F1E02080F8141D704785
:1024500002E008C8121F08C1002AFAD1704770476D
:10246000002001E001C1121F002AFBD170470000CB
:102470002DE9FF5F82B00021DDE90430020DDDF8B7
:1024800040B0034318D044F61050A2F2FF3242434A
:102490001514119801281FD0A5EB0B00401C5FEA12
:1024A000000A4FF000064E4FDFF83891B046504614
:1024B00015D5CAF1000413E0119801244AA301289C
:1024C00001D16FEA0B010298119AC0E90031C0E90D
:1024D000024206B0BDE8F09FCBF10000DFE7044602
:1024E0000021404A491842EB0450CDE9001012E0A7
:1024F000E00707D032463B4640464946FDF744FFD9
:102500008046894632463B4610461946FDF73CFF59
:1025100006460F466410002CEAD1DDE90401DDE92E
:102520000023BAF1000F06DAFDF72EFF42464B46B4
:10253000FDF72AFF05E0FDF799FF42464B46FDF700
:1025400095FF04460E460022284BFEF717F803D8E5
:102550004FF0FF30014607E00022254B2046314670
:10256000FDF76BFEFDF7F1FF102409E0002C0ADBFC
:102570000A220023FDF730FE039B30321A55641EF9
:1025800050EA0102F2D1641C039AC4F1110314440D
:10259000119A012A03D0012208430DD10AE0084311
:1025A00004D000204FF0110B119072E7A3EB0B0544
:1025B0006D1E0DE05B4504DD4FF0000205F10105E5
:1025C00004E003DA4FF00002A5F10105002AECD087
:1025D00002981199C0E90231C0E9004579E700008D
:1025E000000014400000F03F300000000000F04305
:1025F0000000E03F2DE9FF4F95B09B468946064617
:1026000000250FE2252877D100242746F84A01212A
:10261000059400E0044316F8013F203B01FA03F063
:102620001042F7D130782A2811D06FF02F0330787C
:10263000A0F13002092A16D8059A44F0020402EBF0
:10264000820203EB42021044761C0590EFE759F832
:10265000042B0592002A03DA504244F400540590FA
:1026600044F00204761C30782E2816D116F8010F9B
:1026700044F004042A280DD06FF02F023078A0F126
:102680003003092B09D807EB870302EB4303C71874
:10269000761CF3E759F8047B761C30786C280FD051
:1026A00006DC4C2817D068280DD06A2814D104E025
:1026B000742810D07A280FD10DE044F400140AE0F9
:1026C00044F4801401E044F440147278824202D150
:1026D00004F58014761C761C307866280BD013DC49
:1026E000582877D009DC002875D04528F6D0462830
:1026F000F4D047281AD19DE118E0632835D064282A
:1027000079D0652812D195E1702873D008DC67284C
:10271000F1D069286FD06E280DD06F2806D1B5E0B2
:1027200073282CD0752875D0782874D05A461799FC
:1027300090476D1C75E1C4F30250022809D00328AC
:102740000DD0D9F8001004280DD00D6009F104094E
:1027500067E1D9F80010EA17C1E90052F6E7D9F8A5
:1027600000100D80F2E70D70F0E719F8041B8DF8EA
:10277000001000208DF80100EA46012003E059F81E
:1027800004AB4FF0FF3061074FF0000102D40DE0C1
:1027900008F101018846B9420FDA8045F8DB1AF8E2
:1027A00008100029F4D108E008F1010188468142AF
:1027B000FADB1AF808100029F6D105985B46A0EB61
:1027C000080721463846179A00F094FA284400EB8F
:1027D000080507E04DE029E10DE01AF8010B5A4623
:1027E00017999047B8F10108F7D25B462146384661
:1027F000179A13E142E00A220092C4F302524FF00A
:10280000000A022A08D059F804CB032A4FEAEC71D7
:102810000AD00DE029E02AE009F1070121F00702C2
:10282000F2E802C1914609E00FFA8CFC4FEAEC7124
:10283000042A03D14FFA8CFC4FEAEC71002907DA25
:102840000A460021DCF1000C61EB02012D2202E0BE
:10285000220504D52B228DF80420012203E0E20793
:1028600001D02022F7E7904659E00A2102E0102229
:102870000DE010214FF0000A00910BE010224FF004
:10288000000A44F004040827009203E008224FF0F5
:10289000000A0092C4F30252022A05D059F804CB70
:1028A0000021032A08D009E009F1070121F00702FD
:1028B000F2E802C1914605E01FFA8CFC042A01D11E
:1028C0000CF0FF0C4FF00008220728D5702806D026
:1028D000009B83F0100353EA0A0305D00EE0402268
:1028E0008DF80420012208E05CEA010206D03022C3
:1028F0008DF804208DF8050002229046009B83F09D
:10290000080353EA0A030AD15CEA010201D1620713
:1029100005D530228DF804204FF001087F1E58287D
:1029200004D034A003900EA802900DE036A0F9E781
:1029300053466046009AFDF74FFC84460398825C3C
:102940000298401E029002705CEA0100F0D10298E9
:1029500006A9081A00F1200A600702D524F4803481
:1029600000E00127574502DDA7EB0A0000E0002048
:1029700000EB0A01009005984144401A0590E003DD
:1029800006D45B462146179A059800F0B3F9054432
:10299000002706E001A85A46C05D179990476D1CB4
:1029A0007F1C4745F6DBE0030CD55B462146179AB2
:1029B000059800F09FF9054404E030205A46179925
:1029C00090476D1C0099481E00900029F5DC08E036
:1029D000029802995A460078491C0291179990472B
:1029E0006D1CBAF10001AAF1010AF1DC65E10000F9
:1029F00009280100303132333435363738396162D5
:102A00006364656600000000303132333435363798
:102A100038394142434445460000000000F058F96F
:102A20000544761C307800287FF4ECAD19B02846B8
:102A3000BDE8F08F620700D4062709F1070222F0F3
:102A4000070CFCE80223E14603F000485FEA080CAB
:102A500002D00FF2702C0DE05FEA045C02D50FF299
:102A6000682C07E05FEAC47C02D00FF2602C01E022
:102A7000AFF2700C4FF0FF3823F00043CDF850C098
:102A800065280CD006DC452809D046281DD04728EB
:102A90003DD13DE0662818D067287ED138E000217E
:102AA000112F01DB112000E0781CCDE9000106A9FF
:102AB0000EA8FFF7DDFCDDE90F010E9A039100215E
:102AC000009207F1010A04914DE04FF00040009799
:102AD000CDE9011006A90EA8FFF7CAFCDDE90F0237
:102AE00003920E9B11990022DDF80CA00093049232
:102AF00011B9791C00EB010AB7EB0A0004D4C0F14C
:102B0000FF3007F1010A0490AAEB0700019044E0AE
:102B1000012F00DA01270021112F01DD112000E033
:102B20003846CDE9000106A90EA8FFF7A1FCDDE9B2
:102B30000F010E9A0391002104910092BA462107D9
:102B40000CD40399514500DA8A46BAF1010F05DD2C
:102B5000009AAAF10101515C302908D0B84202DA8A
:102B600010F1040F06DA0121CDE9011015E0AAF1F8
:102B70000101E9E7002805DC049901440491AAEB6E
:102B8000000102E0411C514500DD8A460499401ACB
:102B9000401C01904FF000400290200704D401989F
:102BA000504501DBCDF8048000208DF84F000298DD
:102BB0000DF14F07B0F1004F25D02B200E90029859
:102BC0004FF0020800280CDA404202902D200E90AF
:102BD00007E00A210298FDF7E9FA3031029007F880
:102BE000011DB8F10001A8F10108F2DC02980028EB
:102BF000EFD1791E0E980870307800F0200040F078
:102C0000450007F8020D12A8C01B00F10708149830
:102C1000007800B1012000EB0A01019801EBE0719E
:102C200005984144401A401E0590E00306D45B46D7
:102C30002146179A059800F05DF80544149800782D
:102C400018B15A46179990476D1CE00324D55B468E
:102C50002146179A059800F04DF805441CE00498A9
:102C6000002807DBDDE90301884203DD0098405CB2
:102C7000179901E0179930205A469047049805F1BA
:102C80000105401C04900198401E019004D12E20A3
:102C90005A46179990476D1CBAF10001AAF1010A32
:102CA000DDDC05E017F8010B5A46179990476D1CBB
:102CB000B8F10001A8F10108F4DC5B462146179A3F
:102CC0000598ABE62D0000002B000000200000005E
:102CD0002DE9F041044600251E461746880404D419
:102CE00005E039462020B0476D1C641EF9D5284602
:102CF000BDE8F0812DE9F041044600251E469046CE
:102D0000C80301D5302700E02027880404D505E05A
:102D100041463846B0476D1C641EF9D52846BDE8CB
:102D2000F0810A68531C0B60107070470EB58DE877
:102D30000E006946FDF770FD0EBD000010B501469E
:102D4000072301220748FFF7F1FF0648FDF740FF80
:102D50000A210448FDF79EFE0248FDF7DBFD80B224
:102D600010BD00001C0300202DE9F04100250E4697
:102D700007462C4608E03846FFF7E0FF05440520EB
:102D8000FEF742F8641CE4B2B442F4D3B5FBF6F0AB
:102D9000BDE8F08110B50A4C002210212046FEF754
:102DA00049F96420FEF730F8012210212046FEF791
:102DB00041F9BDE810404FF4FA60FEF725B8000075
:102DC0000008014070B5FFF7E5FF42F21075284694
:102DD000FEF71AF8194C1AA054F8E41F88474FF46C
:102DE0007A763046FEF710F8216817A08847700001
:102DF000FEF70AF8216818A0884743F69820FEF7E6
:102E000003F821681EA088476810FDF7FDFF2168C0
:102E10001EA088472846FDF7F7FF216825A08847B0
:102E20003046FDF7F1FF216826A088473046FDF7C0
:102E3000EBFF284901200870002070BDEC00002045
:102E4000415445300D0A000041542B43574D4F4427
:102E5000453D310D0A00000041542B43574A415073
:102E60003D224855415745492D7777776974222C83
:102E7000223132333435363738220D0A0000000053
:102E800041542B43494653520D0A000041542B43F1
:102E9000495053544152543D22544350222C223124
:102EA00039322E3136382E332E34222C3535353505
:102EB0000D0A000041542B4349504D4F44453D31CC
:102EC0000D0A000041542B43495053454E440D0A0E
:102ED00000000000C402002030B5034600204AF282
:102EE00001040DE013F8012B50400022C50702D069
:102EF00084EA500000E04008521CD2B2082AF5D300
:102F0000491E89B2EED230BD05480079C107054897
:102F100001D0002200E001220121FEF78BB8000061
:102F2000EC0000200010014010B50C4CAA201E211E
:102F30002070CC2060700120A0702046FFF7CCFFED
:102F4000010AA1772146C87705482021D0F8E8205A
:102F500020469047E078401CE07010BDDC02002065
:102F6000EC000020074910B548600846FEF784FDD4
:102F700000B1FEE7012204490248FEF749FE0020A5
:102F800010BD00004C030020C8000020074910B508
:102F900048600846FEF770FD00B1FEE701220449D3
:102FA0000248FEF735FE002010BD0000900300200F
:102FB000B4010020074910B548600846FEF75CFDE3
:102FC00000B1FEE7012204490248FEF721FE00207D
:102FD00010BD0000D4030020A0020020FEF73EF840
:102FE000FFF795F8FEF7D2FFFEF7AAFFFFF728F8E4
:102FF000FFF742F8FFF75CF81D4C4FF4E135284627
:1030000054F8DC1F88471B48D0F8DC102846884756
:103010001948D0F8E01028468847A16817A08847CB
:103020004FF4FA60FDF7F0FE1A4C012211462046DB
:10303000FEF700F8012202212046FDF7FBFFFFF713
:10304000C1FE154D4FF47A76FFF752F8FFF792F86C
:103050002868B0FBF6F106FB11000028F4D102212C
:103060002046FDF7DFFFFFF75FFFFDF7C9FBEBE74A
:1030700000000020EC000020D80100207573617270
:1030800074312069732052756E6E696E67210D0A66
:103090000000000000100140C80200200FB4C82149
:1030A00000B5B3B06846FDF776F835AA684634999E
:1030B000FFF7ACF9684600F02BF833B000205DF85C
:1030C00014FB0FB4C82100B5B3B06846FDF763F830
:1030D00035AA68463499FFF799F9684600F036F842
:1030E00033B000205DF814FB0FB4C82100B5B3B0B5
:1030F0006846FDF750F835AA68463499FFF786F917
:10310000684600F041F833B000205DF814FB000081
:1031100070B505460C4C4FF47A760AE00168C94355
:103120004906FBD429466D1C334601220648FEF7AA
:10313000ABFE287800282068F0D10168C943490611
:10314000FBD4002070BD00004C03002070B5054684
:103150000C4C4FF47A760AE00168C9434906FBD467
:1031600029466D1C334601220648FEF78DFE28785D
:1031700000282068F0D10168C9434906FBD400202B
:1031800070BD00009003002070B505460C4C4FF454
:103190007A760AE00168C9434906FBD429466D1CCA
:1031A000334601220648FEF76FFE28780028206883
:1031B000F0D10168C9434906FBD4002070BD00006E
:1031C000D40300202DE9F0410E46074600250D4CA2
:1031D0004FF47A780BE00168C9434906FBD43946BD
:1031E0007F1C434601220748FEF74EFE6D1C2068F7
:1031F000B542F0D30168C9434906FBD40020BDE8BD
:10320000F08100004C0300202DE9F0410E460746F6
:1032100000250D4C4FF47A780BE00168C94349064C
:10322000FBD439467F1C434601220748FEF72CFE9B
:103230006D1C2068B542F0D30168C9434906FBD430
:103240000020BDE8F0810000900300200000000095
:103250000000000001020304060708090000000046
:10326000010203048432000800000020DC02000098
:10327000CC060008B8320008DC0200203C05000043
:103280006024000801DC13652F1408113114089D17
:10329000301B08C50801DC1A8DEC1A4DE41AC3EC8A
:1032A0000BDC0932EC411AB5F01A89F01AE9F08109
:0832B000320182101324F40026
:0400000508000131BD
:00000001FF
